{
  "_format": "hh-sol-artifact-1",
  "contractName": "ERC1155LazyMint",
  "sourceName": "@thirdweb-dev/contracts/base/ERC1155LazyMint.sol",
  "abi": [
    {
      "inputs": [
        {
          "internalType": "address",
          "name": "_defaultAdmin",
          "type": "address"
        },
        {
          "internalType": "string",
          "name": "_name",
          "type": "string"
        },
        {
          "internalType": "string",
          "name": "_symbol",
          "type": "string"
        },
        {
          "internalType": "address",
          "name": "_royaltyRecipient",
          "type": "address"
        },
        {
          "internalType": "uint128",
          "name": "_royaltyBps",
          "type": "uint128"
        }
      ],
      "stateMutability": "nonpayable",
      "type": "constructor"
    },
    {
      "anonymous": false,
      "inputs": [
        {
          "indexed": true,
          "internalType": "address",
          "name": "_owner",
          "type": "address"
        },
        {
          "indexed": true,
          "internalType": "address",
          "name": "_operator",
          "type": "address"
        },
        {
          "indexed": false,
          "internalType": "bool",
          "name": "_approved",
          "type": "bool"
        }
      ],
      "name": "ApprovalForAll",
      "type": "event"
    },
    {
      "anonymous": false,
      "inputs": [
        {
          "indexed": false,
          "internalType": "uint256",
          "name": "_fromTokenId",
          "type": "uint256"
        },
        {
          "indexed": false,
          "internalType": "uint256",
          "name": "_toTokenId",
          "type": "uint256"
        }
      ],
      "name": "BatchMetadataUpdate",
      "type": "event"
    },
    {
      "anonymous": false,
      "inputs": [
        {
          "indexed": false,
          "internalType": "string",
          "name": "prevURI",
          "type": "string"
        },
        {
          "indexed": false,
          "internalType": "string",
          "name": "newURI",
          "type": "string"
        }
      ],
      "name": "ContractURIUpdated",
      "type": "event"
    },
    {
      "anonymous": false,
      "inputs": [
        {
          "indexed": true,
          "internalType": "address",
          "name": "newRoyaltyRecipient",
          "type": "address"
        },
        {
          "indexed": false,
          "internalType": "uint256",
          "name": "newRoyaltyBps",
          "type": "uint256"
        }
      ],
      "name": "DefaultRoyalty",
      "type": "event"
    },
    {
      "anonymous": false,
      "inputs": [],
      "name": "MetadataFrozen",
      "type": "event"
    },
    {
      "anonymous": false,
      "inputs": [
        {
          "indexed": true,
          "internalType": "address",
          "name": "prevOwner",
          "type": "address"
        },
        {
          "indexed": true,
          "internalType": "address",
          "name": "newOwner",
          "type": "address"
        }
      ],
      "name": "OwnerUpdated",
      "type": "event"
    },
    {
      "anonymous": false,
      "inputs": [
        {
          "indexed": true,
          "internalType": "uint256",
          "name": "tokenId",
          "type": "uint256"
        },
        {
          "indexed": true,
          "internalType": "address",
          "name": "royaltyRecipient",
          "type": "address"
        },
        {
          "indexed": false,
          "internalType": "uint256",
          "name": "royaltyBps",
          "type": "uint256"
        }
      ],
      "name": "RoyaltyForToken",
      "type": "event"
    },
    {
      "anonymous": false,
      "inputs": [
        {
          "indexed": true,
          "internalType": "address",
          "name": "claimer",
          "type": "address"
        },
        {
          "indexed": true,
          "internalType": "address",
          "name": "receiver",
          "type": "address"
        },
        {
          "indexed": true,
          "internalType": "uint256",
          "name": "tokenId",
          "type": "uint256"
        },
        {
          "indexed": false,
          "internalType": "uint256",
          "name": "quantityClaimed",
          "type": "uint256"
        }
      ],
      "name": "TokensClaimed",
      "type": "event"
    },
    {
      "anonymous": false,
      "inputs": [
        {
          "indexed": true,
          "internalType": "uint256",
          "name": "startTokenId",
          "type": "uint256"
        },
        {
          "indexed": false,
          "internalType": "uint256",
          "name": "endTokenId",
          "type": "uint256"
        },
        {
          "indexed": false,
          "internalType": "string",
          "name": "baseURI",
          "type": "string"
        },
        {
          "indexed": false,
          "internalType": "bytes",
          "name": "encryptedBaseURI",
          "type": "bytes"
        }
      ],
      "name": "TokensLazyMinted",
      "type": "event"
    },
    {
      "anonymous": false,
      "inputs": [
        {
          "indexed": true,
          "internalType": "address",
          "name": "_operator",
          "type": "address"
        },
        {
          "indexed": true,
          "internalType": "address",
          "name": "_from",
          "type": "address"
        },
        {
          "indexed": true,
          "internalType": "address",
          "name": "_to",
          "type": "address"
        },
        {
          "indexed": false,
          "internalType": "uint256[]",
          "name": "_ids",
          "type": "uint256[]"
        },
        {
          "indexed": false,
          "internalType": "uint256[]",
          "name": "_values",
          "type": "uint256[]"
        }
      ],
      "name": "TransferBatch",
      "type": "event"
    },
    {
      "anonymous": false,
      "inputs": [
        {
          "indexed": true,
          "internalType": "address",
          "name": "_operator",
          "type": "address"
        },
        {
          "indexed": true,
          "internalType": "address",
          "name": "_from",
          "type": "address"
        },
        {
          "indexed": true,
          "internalType": "address",
          "name": "_to",
          "type": "address"
        },
        {
          "indexed": false,
          "internalType": "uint256",
          "name": "_id",
          "type": "uint256"
        },
        {
          "indexed": false,
          "internalType": "uint256",
          "name": "_value",
          "type": "uint256"
        }
      ],
      "name": "TransferSingle",
      "type": "event"
    },
    {
      "anonymous": false,
      "inputs": [
        {
          "indexed": false,
          "internalType": "string",
          "name": "_value",
          "type": "string"
        },
        {
          "indexed": true,
          "internalType": "uint256",
          "name": "_id",
          "type": "uint256"
        }
      ],
      "name": "URI",
      "type": "event"
    },
    {
      "inputs": [
        {
          "internalType": "address",
          "name": "",
          "type": "address"
        },
        {
          "internalType": "uint256",
          "name": "",
          "type": "uint256"
        }
      ],
      "name": "balanceOf",
      "outputs": [
        {
          "internalType": "uint256",
          "name": "",
          "type": "uint256"
        }
      ],
      "stateMutability": "view",
      "type": "function"
    },
    {
      "inputs": [
        {
          "internalType": "address[]",
          "name": "accounts",
          "type": "address[]"
        },
        {
          "internalType": "uint256[]",
          "name": "ids",
          "type": "uint256[]"
        }
      ],
      "name": "balanceOfBatch",
      "outputs": [
        {
          "internalType": "uint256[]",
          "name": "",
          "type": "uint256[]"
        }
      ],
      "stateMutability": "view",
      "type": "function"
    },
    {
      "inputs": [
        {
          "internalType": "uint256",
          "name": "",
          "type": "uint256"
        }
      ],
      "name": "batchFrozen",
      "outputs": [
        {
          "internalType": "bool",
          "name": "",
          "type": "bool"
        }
      ],
      "stateMutability": "view",
      "type": "function"
    },
    {
      "inputs": [
        {
          "internalType": "address",
          "name": "_owner",
          "type": "address"
        },
        {
          "internalType": "uint256",
          "name": "_tokenId",
          "type": "uint256"
        },
        {
          "internalType": "uint256",
          "name": "_amount",
          "type": "uint256"
        }
      ],
      "name": "burn",
      "outputs": [],
      "stateMutability": "nonpayable",
      "type": "function"
    },
    {
      "inputs": [
        {
          "internalType": "address",
          "name": "_owner",
          "type": "address"
        },
        {
          "internalType": "uint256[]",
          "name": "_tokenIds",
          "type": "uint256[]"
        },
        {
          "internalType": "uint256[]",
          "name": "_amounts",
          "type": "uint256[]"
        }
      ],
      "name": "burnBatch",
      "outputs": [],
      "stateMutability": "nonpayable",
      "type": "function"
    },
    {
      "inputs": [
        {
          "internalType": "address",
          "name": "_receiver",
          "type": "address"
        },
        {
          "internalType": "uint256",
          "name": "_tokenId",
          "type": "uint256"
        },
        {
          "internalType": "uint256",
          "name": "_quantity",
          "type": "uint256"
        }
      ],
      "name": "claim",
      "outputs": [],
      "stateMutability": "payable",
      "type": "function"
    },
    {
      "inputs": [],
      "name": "contractURI",
      "outputs": [
        {
          "internalType": "string",
          "name": "",
          "type": "string"
        }
      ],
      "stateMutability": "view",
      "type": "function"
    },
    {
      "inputs": [],
      "name": "getBaseURICount",
      "outputs": [
        {
          "internalType": "uint256",
          "name": "",
          "type": "uint256"
        }
      ],
      "stateMutability": "view",
      "type": "function"
    },
    {
      "inputs": [
        {
          "internalType": "uint256",
          "name": "_index",
          "type": "uint256"
        }
      ],
      "name": "getBatchIdAtIndex",
      "outputs": [
        {
          "internalType": "uint256",
          "name": "",
          "type": "uint256"
        }
      ],
      "stateMutability": "view",
      "type": "function"
    },
    {
      "inputs": [],
      "name": "getDefaultRoyaltyInfo",
      "outputs": [
        {
          "internalType": "address",
          "name": "",
          "type": "address"
        },
        {
          "internalType": "uint16",
          "name": "",
          "type": "uint16"
        }
      ],
      "stateMutability": "view",
      "type": "function"
    },
    {
      "inputs": [
        {
          "internalType": "uint256",
          "name": "_tokenId",
          "type": "uint256"
        }
      ],
      "name": "getRoyaltyInfoForToken",
      "outputs": [
        {
          "internalType": "address",
          "name": "",
          "type": "address"
        },
        {
          "internalType": "uint16",
          "name": "",
          "type": "uint16"
        }
      ],
      "stateMutability": "view",
      "type": "function"
    },
    {
      "inputs": [
        {
          "internalType": "address",
          "name": "",
          "type": "address"
        },
        {
          "internalType": "address",
          "name": "",
          "type": "address"
        }
      ],
      "name": "isApprovedForAll",
      "outputs": [
        {
          "internalType": "bool",
          "name": "",
          "type": "bool"
        }
      ],
      "stateMutability": "view",
      "type": "function"
    },
    {
      "inputs": [
        {
          "internalType": "uint256",
          "name": "_amount",
          "type": "uint256"
        },
        {
          "internalType": "string",
          "name": "_baseURIForTokens",
          "type": "string"
        },
        {
          "internalType": "bytes",
          "name": "_data",
          "type": "bytes"
        }
      ],
      "name": "lazyMint",
      "outputs": [
        {
          "internalType": "uint256",
          "name": "batchId",
          "type": "uint256"
        }
      ],
      "stateMutability": "nonpayable",
      "type": "function"
    },
    {
      "inputs": [
        {
          "internalType": "bytes[]",
          "name": "data",
          "type": "bytes[]"
        }
      ],
      "name": "multicall",
      "outputs": [
        {
          "internalType": "bytes[]",
          "name": "results",
          "type": "bytes[]"
        }
      ],
      "stateMutability": "nonpayable",
      "type": "function"
    },
    {
      "inputs": [],
      "name": "name",
      "outputs": [
        {
          "internalType": "string",
          "name": "",
          "type": "string"
        }
      ],
      "stateMutability": "view",
      "type": "function"
    },
    {
      "inputs": [],
      "name": "nextTokenIdToMint",
      "outputs": [
        {
          "internalType": "uint256",
          "name": "",
          "type": "uint256"
        }
      ],
      "stateMutability": "view",
      "type": "function"
    },
    {
      "inputs": [],
      "name": "owner",
      "outputs": [
        {
          "internalType": "address",
          "name": "",
          "type": "address"
        }
      ],
      "stateMutability": "view",
      "type": "function"
    },
    {
      "inputs": [
        {
          "internalType": "uint256",
          "name": "tokenId",
          "type": "uint256"
        },
        {
          "internalType": "uint256",
          "name": "salePrice",
          "type": "uint256"
        }
      ],
      "name": "royaltyInfo",
      "outputs": [
        {
          "internalType": "address",
          "name": "receiver",
          "type": "address"
        },
        {
          "internalType": "uint256",
          "name": "royaltyAmount",
          "type": "uint256"
        }
      ],
      "stateMutability": "view",
      "type": "function"
    },
    {
      "inputs": [
        {
          "internalType": "address",
          "name": "from",
          "type": "address"
        },
        {
          "internalType": "address",
          "name": "to",
          "type": "address"
        },
        {
          "internalType": "uint256[]",
          "name": "ids",
          "type": "uint256[]"
        },
        {
          "internalType": "uint256[]",
          "name": "amounts",
          "type": "uint256[]"
        },
        {
          "internalType": "bytes",
          "name": "data",
          "type": "bytes"
        }
      ],
      "name": "safeBatchTransferFrom",
      "outputs": [],
      "stateMutability": "nonpayable",
      "type": "function"
    },
    {
      "inputs": [
        {
          "internalType": "address",
          "name": "from",
          "type": "address"
        },
        {
          "internalType": "address",
          "name": "to",
          "type": "address"
        },
        {
          "internalType": "uint256",
          "name": "id",
          "type": "uint256"
        },
        {
          "internalType": "uint256",
          "name": "amount",
          "type": "uint256"
        },
        {
          "internalType": "bytes",
          "name": "data",
          "type": "bytes"
        }
      ],
      "name": "safeTransferFrom",
      "outputs": [],
      "stateMutability": "nonpayable",
      "type": "function"
    },
    {
      "inputs": [
        {
          "internalType": "address",
          "name": "operator",
          "type": "address"
        },
        {
          "internalType": "bool",
          "name": "approved",
          "type": "bool"
        }
      ],
      "name": "setApprovalForAll",
      "outputs": [],
      "stateMutability": "nonpayable",
      "type": "function"
    },
    {
      "inputs": [
        {
          "internalType": "string",
          "name": "_uri",
          "type": "string"
        }
      ],
      "name": "setContractURI",
      "outputs": [],
      "stateMutability": "nonpayable",
      "type": "function"
    },
    {
      "inputs": [
        {
          "internalType": "address",
          "name": "_royaltyRecipient",
          "type": "address"
        },
        {
          "internalType": "uint256",
          "name": "_royaltyBps",
          "type": "uint256"
        }
      ],
      "name": "setDefaultRoyaltyInfo",
      "outputs": [],
      "stateMutability": "nonpayable",
      "type": "function"
    },
    {
      "inputs": [
        {
          "internalType": "address",
          "name": "_newOwner",
          "type": "address"
        }
      ],
      "name": "setOwner",
      "outputs": [],
      "stateMutability": "nonpayable",
      "type": "function"
    },
    {
      "inputs": [
        {
          "internalType": "uint256",
          "name": "_tokenId",
          "type": "uint256"
        },
        {
          "internalType": "address",
          "name": "_recipient",
          "type": "address"
        },
        {
          "internalType": "uint256",
          "name": "_bps",
          "type": "uint256"
        }
      ],
      "name": "setRoyaltyInfoForToken",
      "outputs": [],
      "stateMutability": "nonpayable",
      "type": "function"
    },
    {
      "inputs": [
        {
          "internalType": "bytes4",
          "name": "interfaceId",
          "type": "bytes4"
        }
      ],
      "name": "supportsInterface",
      "outputs": [
        {
          "internalType": "bool",
          "name": "",
          "type": "bool"
        }
      ],
      "stateMutability": "view",
      "type": "function"
    },
    {
      "inputs": [],
      "name": "symbol",
      "outputs": [
        {
          "internalType": "string",
          "name": "",
          "type": "string"
        }
      ],
      "stateMutability": "view",
      "type": "function"
    },
    {
      "inputs": [
        {
          "internalType": "uint256",
          "name": "",
          "type": "uint256"
        }
      ],
      "name": "totalSupply",
      "outputs": [
        {
          "internalType": "uint256",
          "name": "",
          "type": "uint256"
        }
      ],
      "stateMutability": "view",
      "type": "function"
    },
    {
      "inputs": [
        {
          "internalType": "uint256",
          "name": "_tokenId",
          "type": "uint256"
        }
      ],
      "name": "uri",
      "outputs": [
        {
          "internalType": "string",
          "name": "",
          "type": "string"
        }
      ],
      "stateMutability": "view",
      "type": "function"
    },
    {
      "inputs": [
        {
          "internalType": "address",
          "name": "_claimer",
          "type": "address"
        },
        {
          "internalType": "uint256",
          "name": "_tokenId",
          "type": "uint256"
        },
        {
          "internalType": "uint256",
          "name": "_quantity",
          "type": "uint256"
        }
      ],
      "name": "verifyClaim",
      "outputs": [],
      "stateMutability": "view",
      "type": "function"
    }
  ],
  "bytecode": "0x60806040523480156200001157600080fd5b506040516200351e3803806200351e833981016040819052620000349162000265565b83836000620000448382620003a7565b506001620000538282620003a7565b50506001600d5550620000668562000086565b6200007b826001600160801b038316620000d8565b505050505062000473565b600680546001600160a01b038381166001600160a01b0319831681179093556040519116919082907f8292fce18fa69edf4db7b94ea2e58241df0ae57f97e0a6c9b29067028bf92d7690600090a35050565b612710811115620001215760405162461bcd60e51b815260206004820152600f60248201526e45786365656473206d61782062707360881b604482015260640160405180910390fd5b600780546001600160a01b0384166001600160b01b03199091168117600160a01b61ffff851602179091556040518281527f90d7ec04bcb8978719414f82e52e4cb651db41d0e6f8cea6118c2191e6183adb9060200160405180910390a25050565b80516001600160a01b03811681146200019b57600080fd5b919050565b634e487b7160e01b600052604160045260246000fd5b600082601f830112620001c857600080fd5b81516001600160401b0380821115620001e557620001e5620001a0565b604051601f8301601f19908116603f01168101908282118183101715620002105762000210620001a0565b816040528381526020925086838588010111156200022d57600080fd5b600091505b8382101562000251578582018301518183018401529082019062000232565b600093810190920192909252949350505050565b600080600080600060a086880312156200027e57600080fd5b620002898662000183565b60208701519095506001600160401b0380821115620002a757600080fd5b620002b589838a01620001b6565b95506040880151915080821115620002cc57600080fd5b50620002db88828901620001b6565b935050620002ec6060870162000183565b60808701519092506001600160801b03811681146200030a57600080fd5b809150509295509295909350565b600181811c908216806200032d57607f821691505b6020821081036200034e57634e487b7160e01b600052602260045260246000fd5b50919050565b601f821115620003a257600081815260208120601f850160051c810160208610156200037d5750805b601f850160051c820191505b818110156200039e5782815560010162000389565b5050505b505050565b81516001600160401b03811115620003c357620003c3620001a0565b620003db81620003d4845462000318565b8462000354565b602080601f831160018114620004135760008415620003fa5750858301515b600019600386901b1c1916600185901b1785556200039e565b600085815260208120601f198616915b82811015620004445788860151825594840194600190910190840162000423565b5085821015620004635787850151600019600388901b60f8161c191681555b5050505050600190811b01905550565b61309b80620004836000396000f3fe6080604052600436106101cc5760003560e01c80636b20c454116100f7578063ac9650d811610095578063e8a3d48511610064578063e8a3d485146105ad578063e985e9c5146105c2578063f242432a146105fd578063f5298aca1461061d57600080fd5b8063ac9650d814610508578063b24f2d3914610535578063bd85b03914610560578063d37c353b1461058d57600080fd5b8063938e3d7b116100d1578063938e3d7b1461049357806395d89b41146104b35780639bcf7a15146104c8578063a22cb465146104e857600080fd5b80636b20c4541461041b578063830405321461043b5780638da5cb5b1461046b57600080fd5b80632bc43fd91161016f5780634cc157df1161013e5780634cc157df146103775780634e1273f4146103b9578063600dd5ea146103e657806363b45e2d1461040657600080fd5b80632bc43fd91461030f5780632eb2c2d6146103225780633b1475a7146103425780634bbb1abf1461035757600080fd5b80630e89341c116101ab5780630e89341c1461026e57806313af40351461028e5780632419f51b146102b05780632a55205a146102d057600080fd5b8062fdd58e146101d157806301ffc9a71461021c57806306fdde031461024c575b600080fd5b3480156101dd57600080fd5b506102096101ec366004612348565b600260209081526000928352604080842090915290825290205481565b6040519081526020015b60405180910390f35b34801561022857600080fd5b5061023c610237366004612388565b61063d565b6040519015158152602001610213565b34801561025857600080fd5b506102616106aa565b60405161021391906123f5565b34801561027a57600080fd5b50610261610289366004612408565b610738565b34801561029a57600080fd5b506102ae6102a9366004612421565b610779565b005b3480156102bc57600080fd5b506102096102cb366004612408565b6107b2565b3480156102dc57600080fd5b506102f06102eb36600461243c565b610820565b604080516001600160a01b039093168352602083019190915201610213565b6102ae61031d36600461245e565b61085d565b34801561032e57600080fd5b506102ae61033d3660046125e4565b610955565b34801561034e57600080fd5b50600c54610209565b34801561036357600080fd5b506102ae61037236600461245e565b505050565b34801561038357600080fd5b50610397610392366004612408565b6109e4565b604080516001600160a01b03909316835261ffff909116602083015201610213565b3480156103c557600080fd5b506103d96103d436600461268d565b610a4f565b6040516102139190612792565b3480156103f257600080fd5b506102ae610401366004612348565b610b63565b34801561041257600080fd5b50600954610209565b34801561042757600080fd5b506102ae6104363660046127a5565b610b95565b34801561044757600080fd5b5061023c610456366004612408565b600b6020526000908152604090205460ff1681565b34801561047757600080fd5b506006546040516001600160a01b039091168152602001610213565b34801561049f57600080fd5b506102ae6104ae366004612818565b610d37565b3480156104bf57600080fd5b50610261610d64565b3480156104d457600080fd5b506102ae6104e3366004612860565b610d71565b3480156104f457600080fd5b506102ae610503366004612895565b610da0565b34801561051457600080fd5b506105286105233660046128d1565b610e58565b6040516102139190612945565b34801561054157600080fd5b506007546001600160a01b03811690600160a01b900461ffff16610397565b34801561056c57600080fd5b5061020961057b366004612408565b600e6020526000908152604090205481565b34801561059957600080fd5b506102096105a83660046129ef565b610f4c565b3480156105b957600080fd5b50610261611059565b3480156105ce57600080fd5b5061023c6105dd366004612a68565b600360209081526000928352604080842090915290825290205460ff1681565b34801561060957600080fd5b506102ae610618366004612a9b565b611066565b34801561062957600080fd5b506102ae61063836600461245e565b6110ee565b60006301ffc9a760e01b6001600160e01b03198316148061066e5750636cdb3d1360e11b6001600160e01b03198316145b8061068957506303a24d0760e21b6001600160e01b03198316145b806106a457506001600160e01b0319821663152a902d60e11b145b92915050565b600080546106b790612aff565b80601f01602080910402602001604051908101604052809291908181526020018280546106e390612aff565b80156107305780601f1061070557610100808354040283529160200191610730565b820191906000526020600020905b81548152906001019060200180831161071357829003601f168201915b505050505081565b60606000610745836111e3565b9050806107518461137f565b604051602001610762929190612b39565b604051602081830303815290604052915050919050565b610781611487565b6107a65760405162461bcd60e51b815260040161079d90612b68565b60405180910390fd5b6107af816114b4565b50565b60006107bd60095490565b82106107fb5760405162461bcd60e51b815260206004820152600d60248201526c092dcecc2d8d2c840d2dcc8caf609b1b604482015260640161079d565b6009828154811061080e5761080e612b90565b90600052602060002001549050919050565b60008060008061082f866109e4565b90945084925061ffff1690506127106108488287612bbc565b6108529190612be9565b925050509250929050565b6002600d54036108af5760405162461bcd60e51b815260206004820152601f60248201527f5265656e7472616e637947756172643a207265656e7472616e742063616c6c00604482015260640161079d565b6002600d55600c5482106108f25760405162461bcd60e51b815260206004820152600a6024820152691a5b9d985b1a59081a5960b21b604482015260640161079d565b6108fd838383611506565b81836001600160a01b0316336001600160a01b03167fff097c7d8b1957a4ff09ef1361b5fb54dcede3941ba836d0beb9d10bec725de68460405161094391815260200190565b60405180910390a450506001600d5550565b6001600160a01b03851633148061098f57506001600160a01b038516600090815260036020908152604080832033845290915290205460ff165b6109d05760405162461bcd60e51b81526020600482015260126024820152710853d5d3915497d3d497d054141493d5915160721b604482015260640161079d565b6109dd8585858585611521565b5050505050565b6000818152600860209081526040808320815180830190925280546001600160a01b031680835260019091015492820192909252829115610a2b5780516020820151610a45565b6007546001600160a01b03811690600160a01b900461ffff165b9250925050915091565b60608151835114610a725760405162461bcd60e51b815260040161079d90612bfd565b600083516001600160401b03811115610a8d57610a8d612491565b604051908082528060200260200182016040528015610ab6578160200160208202803683370190505b50905060005b8451811015610b5b5760026000868381518110610adb57610adb612b90565b60200260200101516001600160a01b03166001600160a01b031681526020019081526020016000206000858381518110610b1757610b17612b90565b6020026020010151815260200190815260200160002054828281518110610b4057610b40612b90565b6020908102919091010152610b5481612c26565b9050610abc565b509392505050565b610b6b611487565b610b875760405162461bcd60e51b815260040161079d90612b68565b610b9182826116dc565b5050565b336001600160a01b038416811480610bd257506001600160a01b0380851660009081526003602090815260408083209385168352929052205460ff165b610c125760405162461bcd60e51b81526020600482015260116024820152702ab730b8383937bb32b21031b0b63632b960791b604482015260640161079d565b8151835114610c555760405162461bcd60e51b815260206004820152600f60248201526e098cadccee8d040dad2e6dac2e8c6d608b1b604482015260640161079d565b60005b8351811015610d2557828181518110610c7357610c73612b90565b602002602001015160026000876001600160a01b03166001600160a01b031681526020019081526020016000206000868481518110610cb457610cb4612b90565b60200260200101518152602001908152602001600020541015610d135760405162461bcd60e51b8152602060048201526017602482015276139bdd08195b9bdd59da081d1bdad95b9cc81bdddb9959604a1b604482015260640161079d565b610d1e600182612c3f565b9050610c58565b50610d31848484611782565b50505050565b610d3f611487565b610d5b5760405162461bcd60e51b815260040161079d90612b68565b6107af81611937565b600180546106b790612aff565b610d79611487565b610d955760405162461bcd60e51b815260040161079d90612b68565b610372838383611a13565b336001600160a01b0383168103610dea5760405162461bcd60e51b815260206004820152600e60248201526d20a8282927ab24a723afa9a2a62360911b604482015260640161079d565b6001600160a01b03818116600081815260036020908152604080832094881680845294825291829020805460ff191687151590811790915591519182527f17307eab39ab6107e8899845ad3d59bd9653f200f220920489ca2b5937696c3191015b60405180910390a3505050565b6060816001600160401b03811115610e7257610e72612491565b604051908082528060200260200182016040528015610ea557816020015b6060815260200190600190039081610e905790505b50905060005b82811015610f4557610f1530858584818110610ec957610ec9612b90565b9050602002810190610edb9190612c52565b8080601f016020809104026020016040519081016040528093929190818152602001838380828437600092019190915250611ad492505050565b828281518110610f2757610f27612b90565b60200260200101819052508080610f3d90612c26565b915050610eab565b5092915050565b6000610f56611487565b610f725760405162461bcd60e51b815260040161079d90612b68565b85600003610faa5760405162461bcd60e51b81526020600482015260056024820152640c08185b5d60da1b604482015260640161079d565b6000600c549050610ff2818888888080601f016020809104026020016040519081016040528093929190818152602001838380828437600092019190915250611b0092505050565b600c919091559150807f2a0365091ef1a40953c670dce28177e37520648a6fdc91506bffac0ab045570d60016110288a84612c3f565b6110329190612c98565b88888888604051611047959493929190612cd4565b60405180910390a25095945050505050565b600580546106b790612aff565b6001600160a01b0385163314806110a057506001600160a01b038516600090815260036020908152604080832033845290915290205460ff165b6110e15760405162461bcd60e51b81526020600482015260126024820152710853d5d3915497d3d497d054141493d5915160721b604482015260640161079d565b6109dd8585858585611b64565b336001600160a01b03841681148061112b57506001600160a01b0380851660009081526003602090815260408083209385168352929052205460ff165b61116b5760405162461bcd60e51b81526020600482015260116024820152702ab730b8383937bb32b21031b0b63632b960791b604482015260640161079d565b6001600160a01b03841660009081526002602090815260408083208684529091529020548211156111d85760405162461bcd60e51b8152602060048201526017602482015276139bdd08195b9bdd59da081d1bdad95b9cc81bdddb9959604a1b604482015260640161079d565b610d31848484611ca2565b606060006111f060095490565b90506000600980548060200260200160405190810160405280929190818152602001828054801561124057602002820191906000526020600020905b81548152602001906001019080831161122c575b5050505050905060005b828110156113445781818151811061126457611264612b90565b602002602001015185101561133257600a600083838151811061128957611289612b90565b6020026020010151815260200190815260200160002080546112aa90612aff565b80601f01602080910402602001604051908101604052809291908181526020018280546112d690612aff565b80156113235780601f106112f857610100808354040283529160200191611323565b820191906000526020600020905b81548152906001019060200180831161130657829003601f168201915b50505050509350505050919050565b61133d600182612c3f565b905061124a565b5060405162461bcd60e51b815260206004820152600f60248201526e125b9d985b1a59081d1bdad95b9259608a1b604482015260640161079d565b6060816000036113a65750506040805180820190915260018152600360fc1b602082015290565b8160005b81156113d057806113ba81612c26565b91506113c99050600a83612be9565b91506113aa565b6000816001600160401b038111156113ea576113ea612491565b6040519080825280601f01601f191660200182016040528015611414576020820181803683370190505b5090505b841561147f57611429600183612c98565b9150611436600a86612d0d565b611441906030612c3f565b60f81b81838151811061145657611456612b90565b60200101906001600160f81b031916908160001a905350611478600a86612be9565b9450611418565b949350505050565b600061149b6006546001600160a01b031690565b6001600160a01b0316336001600160a01b031614905090565b600680546001600160a01b038381166001600160a01b0319831681179093556040519116919082907f8292fce18fa69edf4db7b94ea2e58241df0ae57f97e0a6c9b29067028bf92d7690600090a35050565b61037283838360405180602001604052806000815250611dc7565b81518351146115425760405162461bcd60e51b815260040161079d90612bfd565b6001600160a01b0384166115685760405162461bcd60e51b815260040161079d90612d21565b33611577818787878787611e91565b60005b845181101561166e57600085828151811061159757611597612b90565b6020026020010151905060008583815181106115b5576115b5612b90565b6020908102919091018101516001600160a01b038b1660009081526002835260408082208683529093529190912054909150818110156116075760405162461bcd60e51b815260040161079d90612d47565b6001600160a01b03808b16600090815260026020818152604080842088855282528084208787039055938d16835290815282822086835290529081208054849290611653908490612c3f565b925050819055505050508061166790612c26565b905061157a565b50846001600160a01b0316866001600160a01b0316826001600160a01b03167f4a39dc06d4c0dbc64b70af90fd698a233a518aa5d07e595d983b8c0526c8f7fb87876040516116be929190612d71565b60405180910390a46116d4818787878787611f9d565b505050505050565b6127108111156117205760405162461bcd60e51b815260206004820152600f60248201526e45786365656473206d61782062707360881b604482015260640161079d565b600780546001600160a01b0384166001600160b01b03199091168117600160a01b61ffff851602179091556040518281527f90d7ec04bcb8978719414f82e52e4cb651db41d0e6f8cea6118c2191e6183adb9060200160405180910390a25050565b6001600160a01b0383166117c95760405162461bcd60e51b815260206004820152600e60248201526d232927a6afad22a927afa0a2222960911b604482015260640161079d565b80518251146117ea5760405162461bcd60e51b815260040161079d90612bfd565b600033905061180d81856000868660405180602001604052806000815250611e91565b60005b83518110156118d857600084828151811061182d5761182d612b90565b60200260200101519050600084838151811061184b5761184b612b90565b6020908102919091018101516001600160a01b038916600090815260028352604080822086835290935291909120549091508181101561189d5760405162461bcd60e51b815260040161079d90612d47565b6001600160a01b03881660009081526002602090815260408083209583529490529290922091039055806118d081612c26565b915050611810565b5060006001600160a01b0316846001600160a01b0316826001600160a01b03167f4a39dc06d4c0dbc64b70af90fd698a233a518aa5d07e595d983b8c0526c8f7fb8686604051611929929190612d71565b60405180910390a450505050565b60006005805461194690612aff565b80601f016020809104026020016040519081016040528092919081815260200182805461197290612aff565b80156119bf5780601f10611994576101008083540402835291602001916119bf565b820191906000526020600020905b8154815290600101906020018083116119a257829003601f168201915b5050505050905081600590816119d59190612de5565b507fc9c7c3fe08b88b4df9d4d47ef47d2c43d55c025a0ba88ca442580ed9e7348a168183604051611a07929190612ea4565b60405180910390a15050565b612710811115611a575760405162461bcd60e51b815260206004820152600f60248201526e45786365656473206d61782062707360881b604482015260640161079d565b6040805180820182526001600160a01b038481168083526020808401868152600089815260088352869020945185546001600160a01b031916941693909317845591516001909301929092559151838152909185917f7365cf4122f072a3365c20d54eff9b38d73c096c28e1892ec8f5b0e403a0f12d9101610e4b565b6060611af9838360405180606001604052806027815260200161303f602791396120f0565b9392505050565b600080611b0d8486612c3f565b60098054600181019091557f6e1540171b6c0c960b71a7020d9f60077f6af931a8bbf590da0223dacf75c7af018190556000818152600a60205260409020909250829150611b5b8482612de5565b50935093915050565b6001600160a01b038416611b8a5760405162461bcd60e51b815260040161079d90612d21565b33611ba9818787611b9a886121cb565b611ba3886121cb565b87611e91565b6001600160a01b038616600090815260026020908152604080832087845290915290205483811015611bed5760405162461bcd60e51b815260040161079d90612d47565b6001600160a01b0380881660009081526002602081815260408084208a855282528084208987039055938a16835290815282822088835290529081208054869290611c39908490612c3f565b909155505060408051868152602081018690526001600160a01b03808916928a821692918616917fc3d58168c5ae7397731d063d5bbf3d657854427343f4c083240f7aacaa2d0f62910160405180910390a4611c99828888888888612216565b50505050505050565b6001600160a01b038316611ce95760405162461bcd60e51b815260206004820152600e60248201526d232927a6afad22a927afa0a2222960911b604482015260640161079d565b33611d1881856000611cfa876121cb565b611d03876121cb565b60405180602001604052806000815250611e91565b6001600160a01b038416600090815260026020908152604080832086845290915290205482811015611d5c5760405162461bcd60e51b815260040161079d90612d47565b6001600160a01b03858116600081815260026020908152604080832089845282528083208887039055805189815291820188905291938616917fc3d58168c5ae7397731d063d5bbf3d657854427343f4c083240f7aacaa2d0f62910160405180910390a45050505050565b6001600160a01b038416611ded5760405162461bcd60e51b815260040161079d90612d21565b33611dfe81600087611b9a886121cb565b6001600160a01b038516600090815260026020908152604080832087845290915281208054859290611e31908490612c3f565b909155505060408051858152602081018590526001600160a01b0380881692600092918516917fc3d58168c5ae7397731d063d5bbf3d657854427343f4c083240f7aacaa2d0f62910160405180910390a46109dd81600087878787612216565b6001600160a01b038516611f185760005b8351811015611f1657828181518110611ebd57611ebd612b90565b6020026020010151600e6000868481518110611edb57611edb612b90565b602002602001015181526020019081526020016000206000828254611f009190612c3f565b90915550611f0f905081612c26565b9050611ea2565b505b6001600160a01b0384166116d45760005b8351811015611c9957828181518110611f4457611f44612b90565b6020026020010151600e6000868481518110611f6257611f62612b90565b602002602001015181526020019081526020016000206000828254611f879190612c98565b90915550611f96905081612c26565b9050611f29565b6001600160a01b0384163b156116d45760405163bc197c8160e01b81526001600160a01b0385169063bc197c8190611fe19089908990889088908890600401612ec9565b6020604051808303816000875af192505050801561201c575060408051601f3d908101601f1916820190925261201991810190612f1b565b60015b61209e57612028612f38565b806308c379a003612061575061203c612f54565b806120475750612063565b8060405162461bcd60e51b815260040161079d91906123f5565b505b60405162461bcd60e51b815260206004820152601060248201526f10a2a92198989a9aa922a1a2a4ab22a960811b604482015260640161079d565b6001600160e01b0319811663bc197c8160e01b14611c995760405162461bcd60e51b815260206004820152600f60248201526e1513d2d15394d7d491529150d51151608a1b604482015260640161079d565b60606001600160a01b0384163b1515801561210a5750333b155b6121565760405162461bcd60e51b815260206004820152601e60248201527f416464726573733a20696e76616c69642064656c65676174652063616c6c0000604482015260640161079d565b600080856001600160a01b0316856040516121719190612fdd565b600060405180830381855af49150503d80600081146121ac576040519150601f19603f3d011682016040523d82523d6000602084013e6121b1565b606091505b50915091506121c18282866122f3565b9695505050505050565b6040805160018082528183019092526060916000919060208083019080368337019050509050828160008151811061220557612205612b90565b602090810291909101015292915050565b6001600160a01b0384163b156116d45760405163f23a6e6160e01b81526001600160a01b0385169063f23a6e619061225a9089908990889088908890600401612ff9565b6020604051808303816000875af1925050508015612295575060408051601f3d908101601f1916820190925261229291810190612f1b565b60015b6122a157612028612f38565b6001600160e01b0319811663f23a6e6160e01b14611c995760405162461bcd60e51b815260206004820152600f60248201526e1513d2d15394d7d491529150d51151608a1b604482015260640161079d565b60608315612302575081611af9565b8251156123125782518084602001fd5b8160405162461bcd60e51b815260040161079d91906123f5565b80356001600160a01b038116811461234357600080fd5b919050565b6000806040838503121561235b57600080fd5b6123648361232c565b946020939093013593505050565b6001600160e01b0319811681146107af57600080fd5b60006020828403121561239a57600080fd5b8135611af981612372565b60005b838110156123c05781810151838201526020016123a8565b50506000910152565b600081518084526123e18160208601602086016123a5565b601f01601f19169290920160200192915050565b602081526000611af960208301846123c9565b60006020828403121561241a57600080fd5b5035919050565b60006020828403121561243357600080fd5b611af98261232c565b6000806040838503121561244f57600080fd5b50508035926020909101359150565b60008060006060848603121561247357600080fd5b61247c8461232c565b95602085013595506040909401359392505050565b634e487b7160e01b600052604160045260246000fd5b601f8201601f191681016001600160401b03811182821017156124cc576124cc612491565b6040525050565b60006001600160401b038211156124ec576124ec612491565b5060051b60200190565b600082601f83011261250757600080fd5b81356020612514826124d3565b60405161252182826124a7565b83815260059390931b850182019282810191508684111561254157600080fd5b8286015b8481101561255c5780358352918301918301612545565b509695505050505050565b60006001600160401b0383111561258057612580612491565b604051612597601f8501601f1916602001826124a7565b8091508381528484840111156125ac57600080fd5b83836020830137600060208583010152509392505050565b600082601f8301126125d557600080fd5b611af983833560208501612567565b600080600080600060a086880312156125fc57600080fd5b6126058661232c565b94506126136020870161232c565b935060408601356001600160401b038082111561262f57600080fd5b61263b89838a016124f6565b9450606088013591508082111561265157600080fd5b61265d89838a016124f6565b9350608088013591508082111561267357600080fd5b50612680888289016125c4565b9150509295509295909350565b600080604083850312156126a057600080fd5b82356001600160401b03808211156126b757600080fd5b818501915085601f8301126126cb57600080fd5b813560206126d8826124d3565b6040516126e582826124a7565b83815260059390931b850182019282810191508984111561270557600080fd5b948201945b8386101561272a5761271b8661232c565b8252948201949082019061270a565b9650508601359250508082111561274057600080fd5b5061274d858286016124f6565b9150509250929050565b600081518084526020808501945080840160005b838110156127875781518752958201959082019060010161276b565b509495945050505050565b602081526000611af96020830184612757565b6000806000606084860312156127ba57600080fd5b6127c38461232c565b925060208401356001600160401b03808211156127df57600080fd5b6127eb878388016124f6565b9350604086013591508082111561280157600080fd5b5061280e868287016124f6565b9150509250925092565b60006020828403121561282a57600080fd5b81356001600160401b0381111561284057600080fd5b8201601f8101841361285157600080fd5b61147f84823560208401612567565b60008060006060848603121561287557600080fd5b833592506128856020850161232c565b9150604084013590509250925092565b600080604083850312156128a857600080fd5b6128b18361232c565b9150602083013580151581146128c657600080fd5b809150509250929050565b600080602083850312156128e457600080fd5b82356001600160401b03808211156128fb57600080fd5b818501915085601f83011261290f57600080fd5b81358181111561291e57600080fd5b8660208260051b850101111561293357600080fd5b60209290920196919550909350505050565b6000602080830181845280855180835260408601915060408160051b870101925083870160005b8281101561299a57603f198886030184526129888583516123c9565b9450928501929085019060010161296c565b5092979650505050505050565b60008083601f8401126129b957600080fd5b5081356001600160401b038111156129d057600080fd5b6020830191508360208285010111156129e857600080fd5b9250929050565b600080600080600060608688031215612a0757600080fd5b8535945060208601356001600160401b0380821115612a2557600080fd5b612a3189838a016129a7565b90965094506040880135915080821115612a4a57600080fd5b50612a57888289016129a7565b969995985093965092949392505050565b60008060408385031215612a7b57600080fd5b612a848361232c565b9150612a926020840161232c565b90509250929050565b600080600080600060a08688031215612ab357600080fd5b612abc8661232c565b9450612aca6020870161232c565b9350604086013592506060860135915060808601356001600160401b03811115612af357600080fd5b612680888289016125c4565b600181811c90821680612b1357607f821691505b602082108103612b3357634e487b7160e01b600052602260045260246000fd5b50919050565b60008351612b4b8184602088016123a5565b835190830190612b5f8183602088016123a5565b01949350505050565b6020808252600e908201526d139bdd08185d5d1a1bdc9a5e995960921b604082015260600190565b634e487b7160e01b600052603260045260246000fd5b634e487b7160e01b600052601160045260246000fd5b80820281158282048414176106a4576106a4612ba6565b634e487b7160e01b600052601260045260246000fd5b600082612bf857612bf8612bd3565b500490565b6020808252600f908201526e0988a9c8ea890be9a92a69a82a8869608b1b604082015260600190565b600060018201612c3857612c38612ba6565b5060010190565b808201808211156106a4576106a4612ba6565b6000808335601e19843603018112612c6957600080fd5b8301803591506001600160401b03821115612c8357600080fd5b6020019150368190038213156129e857600080fd5b818103818111156106a4576106a4612ba6565b81835281816020850137506000828201602090810191909152601f909101601f19169091010190565b858152606060208201526000612cee606083018688612cab565b8281036040840152612d01818587612cab565b98975050505050505050565b600082612d1c57612d1c612bd3565b500690565b6020808252600c908201526b2a27afad22a927afa0a2222960a11b604082015260600190565b60208082526010908201526f125394d551919250d251539517d0905360821b604082015260600190565b604081526000612d846040830185612757565b8281036020840152612d968185612757565b95945050505050565b601f82111561037257600081815260208120601f850160051c81016020861015612dc65750805b601f850160051c820191505b818110156116d457828155600101612dd2565b81516001600160401b03811115612dfe57612dfe612491565b612e1281612e0c8454612aff565b84612d9f565b602080601f831160018114612e475760008415612e2f5750858301515b600019600386901b1c1916600185901b1785556116d4565b600085815260208120601f198616915b82811015612e7657888601518255948401946001909101908401612e57565b5085821015612e945787850151600019600388901b60f8161c191681555b5050505050600190811b01905550565b604081526000612eb760408301856123c9565b8281036020840152612d9681856123c9565b6001600160a01b0386811682528516602082015260a060408201819052600090612ef590830186612757565b8281036060840152612f078186612757565b90508281036080840152612d0181856123c9565b600060208284031215612f2d57600080fd5b8151611af981612372565b600060033d1115612f515760046000803e5060005160e01c5b90565b600060443d1015612f625790565b6040516003193d81016004833e81513d6001600160401b038160248401118184111715612f9157505050505090565b8285019150815181811115612fa95750505050505090565b843d8701016020828501011115612fc35750505050505090565b612fd2602082860101876124a7565b509095945050505050565b60008251612fef8184602087016123a5565b9190910192915050565b6001600160a01b03868116825285166020820152604081018490526060810183905260a060808201819052600090613033908301846123c9565b97965050505050505056fe416464726573733a206c6f772d6c6576656c2064656c65676174652063616c6c206661696c6564a26469706673582212203675196492841d8485b9c97d88065ff6b9137dbe133ed2f6db41a257321b944564736f6c63430008110033",
  "linkReferences": {},
  "deployedLinkReferences": {}
}