{
  "_format": "hh-sol-artifact-1",
  "contractName": "contractHouse",
  "sourceName": "contracts/contractHouse.sol",
  "abi": [
    {
      "inputs": [
        {
          "internalType": "string",
          "name": "_name",
          "type": "string"
        },
        {
          "internalType": "string",
          "name": "_symbol",
          "type": "string"
        }
      ],
      "stateMutability": "nonpayable",
      "type": "constructor"
    },
    {
      "anonymous": false,
      "inputs": [
        {
          "indexed": true,
          "internalType": "address",
          "name": "_owner",
          "type": "address"
        },
        {
          "indexed": true,
          "internalType": "address",
          "name": "_operator",
          "type": "address"
        },
        {
          "indexed": false,
          "internalType": "bool",
          "name": "_approved",
          "type": "bool"
        }
      ],
      "name": "ApprovalForAll",
      "type": "event"
    },
    {
      "anonymous": false,
      "inputs": [
        {
          "indexed": false,
          "internalType": "uint256",
          "name": "_fromTokenId",
          "type": "uint256"
        },
        {
          "indexed": false,
          "internalType": "uint256",
          "name": "_toTokenId",
          "type": "uint256"
        }
      ],
      "name": "BatchMetadataUpdate",
      "type": "event"
    },
    {
      "anonymous": false,
      "inputs": [
        {
          "indexed": false,
          "internalType": "string",
          "name": "prevURI",
          "type": "string"
        },
        {
          "indexed": false,
          "internalType": "string",
          "name": "newURI",
          "type": "string"
        }
      ],
      "name": "ContractURIUpdated",
      "type": "event"
    },
    {
      "anonymous": false,
      "inputs": [
        {
          "indexed": true,
          "internalType": "address",
          "name": "newRoyaltyRecipient",
          "type": "address"
        },
        {
          "indexed": false,
          "internalType": "uint256",
          "name": "newRoyaltyBps",
          "type": "uint256"
        }
      ],
      "name": "DefaultRoyalty",
      "type": "event"
    },
    {
      "anonymous": false,
      "inputs": [],
      "name": "MetadataFrozen",
      "type": "event"
    },
    {
      "anonymous": false,
      "inputs": [
        {
          "indexed": true,
          "internalType": "address",
          "name": "prevOwner",
          "type": "address"
        },
        {
          "indexed": true,
          "internalType": "address",
          "name": "newOwner",
          "type": "address"
        }
      ],
      "name": "OwnerUpdated",
      "type": "event"
    },
    {
      "anonymous": false,
      "inputs": [
        {
          "indexed": true,
          "internalType": "uint256",
          "name": "tokenId",
          "type": "uint256"
        },
        {
          "indexed": true,
          "internalType": "address",
          "name": "royaltyRecipient",
          "type": "address"
        },
        {
          "indexed": false,
          "internalType": "uint256",
          "name": "royaltyBps",
          "type": "uint256"
        }
      ],
      "name": "RoyaltyForToken",
      "type": "event"
    },
    {
      "anonymous": false,
      "inputs": [
        {
          "indexed": true,
          "internalType": "address",
          "name": "claimer",
          "type": "address"
        },
        {
          "indexed": true,
          "internalType": "address",
          "name": "receiver",
          "type": "address"
        },
        {
          "indexed": true,
          "internalType": "uint256",
          "name": "tokenId",
          "type": "uint256"
        },
        {
          "indexed": false,
          "internalType": "uint256",
          "name": "quantityClaimed",
          "type": "uint256"
        }
      ],
      "name": "TokensClaimed",
      "type": "event"
    },
    {
      "anonymous": false,
      "inputs": [
        {
          "indexed": true,
          "internalType": "uint256",
          "name": "startTokenId",
          "type": "uint256"
        },
        {
          "indexed": false,
          "internalType": "uint256",
          "name": "endTokenId",
          "type": "uint256"
        },
        {
          "indexed": false,
          "internalType": "string",
          "name": "baseURI",
          "type": "string"
        },
        {
          "indexed": false,
          "internalType": "bytes",
          "name": "encryptedBaseURI",
          "type": "bytes"
        }
      ],
      "name": "TokensLazyMinted",
      "type": "event"
    },
    {
      "anonymous": false,
      "inputs": [
        {
          "indexed": true,
          "internalType": "address",
          "name": "_operator",
          "type": "address"
        },
        {
          "indexed": true,
          "internalType": "address",
          "name": "_from",
          "type": "address"
        },
        {
          "indexed": true,
          "internalType": "address",
          "name": "_to",
          "type": "address"
        },
        {
          "indexed": false,
          "internalType": "uint256[]",
          "name": "_ids",
          "type": "uint256[]"
        },
        {
          "indexed": false,
          "internalType": "uint256[]",
          "name": "_values",
          "type": "uint256[]"
        }
      ],
      "name": "TransferBatch",
      "type": "event"
    },
    {
      "anonymous": false,
      "inputs": [
        {
          "indexed": true,
          "internalType": "address",
          "name": "_operator",
          "type": "address"
        },
        {
          "indexed": true,
          "internalType": "address",
          "name": "_from",
          "type": "address"
        },
        {
          "indexed": true,
          "internalType": "address",
          "name": "_to",
          "type": "address"
        },
        {
          "indexed": false,
          "internalType": "uint256",
          "name": "_id",
          "type": "uint256"
        },
        {
          "indexed": false,
          "internalType": "uint256",
          "name": "_value",
          "type": "uint256"
        }
      ],
      "name": "TransferSingle",
      "type": "event"
    },
    {
      "anonymous": false,
      "inputs": [
        {
          "indexed": false,
          "internalType": "string",
          "name": "_value",
          "type": "string"
        },
        {
          "indexed": true,
          "internalType": "uint256",
          "name": "_id",
          "type": "uint256"
        }
      ],
      "name": "URI",
      "type": "event"
    },
    {
      "inputs": [
        {
          "internalType": "address",
          "name": "",
          "type": "address"
        },
        {
          "internalType": "uint256",
          "name": "",
          "type": "uint256"
        }
      ],
      "name": "balanceOf",
      "outputs": [
        {
          "internalType": "uint256",
          "name": "",
          "type": "uint256"
        }
      ],
      "stateMutability": "view",
      "type": "function"
    },
    {
      "inputs": [
        {
          "internalType": "address[]",
          "name": "accounts",
          "type": "address[]"
        },
        {
          "internalType": "uint256[]",
          "name": "ids",
          "type": "uint256[]"
        }
      ],
      "name": "balanceOfBatch",
      "outputs": [
        {
          "internalType": "uint256[]",
          "name": "",
          "type": "uint256[]"
        }
      ],
      "stateMutability": "view",
      "type": "function"
    },
    {
      "inputs": [
        {
          "internalType": "uint256",
          "name": "",
          "type": "uint256"
        }
      ],
      "name": "batchFrozen",
      "outputs": [
        {
          "internalType": "bool",
          "name": "",
          "type": "bool"
        }
      ],
      "stateMutability": "view",
      "type": "function"
    },
    {
      "inputs": [
        {
          "internalType": "address",
          "name": "_owner",
          "type": "address"
        },
        {
          "internalType": "uint256",
          "name": "_tokenId",
          "type": "uint256"
        },
        {
          "internalType": "uint256",
          "name": "_amount",
          "type": "uint256"
        }
      ],
      "name": "burn",
      "outputs": [],
      "stateMutability": "nonpayable",
      "type": "function"
    },
    {
      "inputs": [
        {
          "internalType": "address",
          "name": "_owner",
          "type": "address"
        },
        {
          "internalType": "uint256[]",
          "name": "_tokenIds",
          "type": "uint256[]"
        },
        {
          "internalType": "uint256[]",
          "name": "_amounts",
          "type": "uint256[]"
        }
      ],
      "name": "burnBatch",
      "outputs": [],
      "stateMutability": "nonpayable",
      "type": "function"
    },
    {
      "inputs": [
        {
          "internalType": "address",
          "name": "_receiver",
          "type": "address"
        },
        {
          "internalType": "uint256",
          "name": "_tokenId",
          "type": "uint256"
        },
        {
          "internalType": "uint256",
          "name": "_quantity",
          "type": "uint256"
        }
      ],
      "name": "claim",
      "outputs": [],
      "stateMutability": "payable",
      "type": "function"
    },
    {
      "inputs": [],
      "name": "contractURI",
      "outputs": [
        {
          "internalType": "string",
          "name": "",
          "type": "string"
        }
      ],
      "stateMutability": "view",
      "type": "function"
    },
    {
      "inputs": [],
      "name": "getBaseURICount",
      "outputs": [
        {
          "internalType": "uint256",
          "name": "",
          "type": "uint256"
        }
      ],
      "stateMutability": "view",
      "type": "function"
    },
    {
      "inputs": [
        {
          "internalType": "uint256",
          "name": "_index",
          "type": "uint256"
        }
      ],
      "name": "getBatchIdAtIndex",
      "outputs": [
        {
          "internalType": "uint256",
          "name": "",
          "type": "uint256"
        }
      ],
      "stateMutability": "view",
      "type": "function"
    },
    {
      "inputs": [],
      "name": "getDefaultRoyaltyInfo",
      "outputs": [
        {
          "internalType": "address",
          "name": "",
          "type": "address"
        },
        {
          "internalType": "uint16",
          "name": "",
          "type": "uint16"
        }
      ],
      "stateMutability": "view",
      "type": "function"
    },
    {
      "inputs": [
        {
          "internalType": "uint256",
          "name": "_tokenId",
          "type": "uint256"
        }
      ],
      "name": "getRoyaltyInfoForToken",
      "outputs": [
        {
          "internalType": "address",
          "name": "",
          "type": "address"
        },
        {
          "internalType": "uint16",
          "name": "",
          "type": "uint16"
        }
      ],
      "stateMutability": "view",
      "type": "function"
    },
    {
      "inputs": [
        {
          "internalType": "address",
          "name": "",
          "type": "address"
        },
        {
          "internalType": "address",
          "name": "",
          "type": "address"
        }
      ],
      "name": "isApprovedForAll",
      "outputs": [
        {
          "internalType": "bool",
          "name": "",
          "type": "bool"
        }
      ],
      "stateMutability": "view",
      "type": "function"
    },
    {
      "inputs": [
        {
          "internalType": "uint256",
          "name": "_amount",
          "type": "uint256"
        },
        {
          "internalType": "string",
          "name": "_baseURIForTokens",
          "type": "string"
        },
        {
          "internalType": "bytes",
          "name": "_data",
          "type": "bytes"
        }
      ],
      "name": "lazyMint",
      "outputs": [
        {
          "internalType": "uint256",
          "name": "batchId",
          "type": "uint256"
        }
      ],
      "stateMutability": "nonpayable",
      "type": "function"
    },
    {
      "inputs": [],
      "name": "merge",
      "outputs": [],
      "stateMutability": "nonpayable",
      "type": "function"
    },
    {
      "inputs": [
        {
          "internalType": "bytes[]",
          "name": "data",
          "type": "bytes[]"
        }
      ],
      "name": "multicall",
      "outputs": [
        {
          "internalType": "bytes[]",
          "name": "results",
          "type": "bytes[]"
        }
      ],
      "stateMutability": "nonpayable",
      "type": "function"
    },
    {
      "inputs": [],
      "name": "name",
      "outputs": [
        {
          "internalType": "string",
          "name": "",
          "type": "string"
        }
      ],
      "stateMutability": "view",
      "type": "function"
    },
    {
      "inputs": [],
      "name": "nextTokenIdToMint",
      "outputs": [
        {
          "internalType": "uint256",
          "name": "",
          "type": "uint256"
        }
      ],
      "stateMutability": "view",
      "type": "function"
    },
    {
      "inputs": [],
      "name": "owner",
      "outputs": [
        {
          "internalType": "address",
          "name": "",
          "type": "address"
        }
      ],
      "stateMutability": "view",
      "type": "function"
    },
    {
      "inputs": [
        {
          "internalType": "uint256",
          "name": "tokenId",
          "type": "uint256"
        },
        {
          "internalType": "uint256",
          "name": "salePrice",
          "type": "uint256"
        }
      ],
      "name": "royaltyInfo",
      "outputs": [
        {
          "internalType": "address",
          "name": "receiver",
          "type": "address"
        },
        {
          "internalType": "uint256",
          "name": "royaltyAmount",
          "type": "uint256"
        }
      ],
      "stateMutability": "view",
      "type": "function"
    },
    {
      "inputs": [
        {
          "internalType": "address",
          "name": "from",
          "type": "address"
        },
        {
          "internalType": "address",
          "name": "to",
          "type": "address"
        },
        {
          "internalType": "uint256[]",
          "name": "ids",
          "type": "uint256[]"
        },
        {
          "internalType": "uint256[]",
          "name": "amounts",
          "type": "uint256[]"
        },
        {
          "internalType": "bytes",
          "name": "data",
          "type": "bytes"
        }
      ],
      "name": "safeBatchTransferFrom",
      "outputs": [],
      "stateMutability": "nonpayable",
      "type": "function"
    },
    {
      "inputs": [
        {
          "internalType": "address",
          "name": "from",
          "type": "address"
        },
        {
          "internalType": "address",
          "name": "to",
          "type": "address"
        },
        {
          "internalType": "uint256",
          "name": "id",
          "type": "uint256"
        },
        {
          "internalType": "uint256",
          "name": "amount",
          "type": "uint256"
        },
        {
          "internalType": "bytes",
          "name": "data",
          "type": "bytes"
        }
      ],
      "name": "safeTransferFrom",
      "outputs": [],
      "stateMutability": "nonpayable",
      "type": "function"
    },
    {
      "inputs": [
        {
          "internalType": "address",
          "name": "operator",
          "type": "address"
        },
        {
          "internalType": "bool",
          "name": "approved",
          "type": "bool"
        }
      ],
      "name": "setApprovalForAll",
      "outputs": [],
      "stateMutability": "nonpayable",
      "type": "function"
    },
    {
      "inputs": [
        {
          "internalType": "string",
          "name": "_uri",
          "type": "string"
        }
      ],
      "name": "setContractURI",
      "outputs": [],
      "stateMutability": "nonpayable",
      "type": "function"
    },
    {
      "inputs": [
        {
          "internalType": "address",
          "name": "_royaltyRecipient",
          "type": "address"
        },
        {
          "internalType": "uint256",
          "name": "_royaltyBps",
          "type": "uint256"
        }
      ],
      "name": "setDefaultRoyaltyInfo",
      "outputs": [],
      "stateMutability": "nonpayable",
      "type": "function"
    },
    {
      "inputs": [
        {
          "internalType": "address",
          "name": "_newOwner",
          "type": "address"
        }
      ],
      "name": "setOwner",
      "outputs": [],
      "stateMutability": "nonpayable",
      "type": "function"
    },
    {
      "inputs": [
        {
          "internalType": "uint256",
          "name": "_tokenId",
          "type": "uint256"
        },
        {
          "internalType": "address",
          "name": "_recipient",
          "type": "address"
        },
        {
          "internalType": "uint256",
          "name": "_bps",
          "type": "uint256"
        }
      ],
      "name": "setRoyaltyInfoForToken",
      "outputs": [],
      "stateMutability": "nonpayable",
      "type": "function"
    },
    {
      "inputs": [
        {
          "internalType": "bytes4",
          "name": "interfaceId",
          "type": "bytes4"
        }
      ],
      "name": "supportsInterface",
      "outputs": [
        {
          "internalType": "bool",
          "name": "",
          "type": "bool"
        }
      ],
      "stateMutability": "view",
      "type": "function"
    },
    {
      "inputs": [],
      "name": "symbol",
      "outputs": [
        {
          "internalType": "string",
          "name": "",
          "type": "string"
        }
      ],
      "stateMutability": "view",
      "type": "function"
    },
    {
      "inputs": [
        {
          "internalType": "uint256",
          "name": "",
          "type": "uint256"
        }
      ],
      "name": "totalSupply",
      "outputs": [
        {
          "internalType": "uint256",
          "name": "",
          "type": "uint256"
        }
      ],
      "stateMutability": "view",
      "type": "function"
    },
    {
      "inputs": [
        {
          "internalType": "uint256",
          "name": "_tokenId",
          "type": "uint256"
        }
      ],
      "name": "uri",
      "outputs": [
        {
          "internalType": "string",
          "name": "",
          "type": "string"
        }
      ],
      "stateMutability": "view",
      "type": "function"
    },
    {
      "inputs": [
        {
          "internalType": "address",
          "name": "_claimer",
          "type": "address"
        },
        {
          "internalType": "uint256",
          "name": "_tokenId",
          "type": "uint256"
        },
        {
          "internalType": "uint256",
          "name": "_quantity",
          "type": "uint256"
        }
      ],
      "name": "verifyClaim",
      "outputs": [],
      "stateMutability": "view",
      "type": "function"
    }
  ],
  "bytecode": "0x60806040523480156200001157600080fd5b50604051620035a2380380620035a283398101604081905262000034916200024f565b33828282600083838262000049838262000348565b50600162000058828262000348565b50506001600d55506200006b856200008d565b62000080826001600160801b038316620000df565b5050505050505062000414565b600680546001600160a01b038381166001600160a01b0319831681179093556040519116919082907f8292fce18fa69edf4db7b94ea2e58241df0ae57f97e0a6c9b29067028bf92d7690600090a35050565b612710811115620001285760405162461bcd60e51b815260206004820152600f60248201526e45786365656473206d61782062707360881b604482015260640160405180910390fd5b600780546001600160a01b0384166001600160b01b03199091168117600160a01b61ffff851602179091556040518281527f90d7ec04bcb8978719414f82e52e4cb651db41d0e6f8cea6118c2191e6183adb9060200160405180910390a25050565b634e487b7160e01b600052604160045260246000fd5b600082601f830112620001b257600080fd5b81516001600160401b0380821115620001cf57620001cf6200018a565b604051601f8301601f19908116603f01168101908282118183101715620001fa57620001fa6200018a565b816040528381526020925086838588010111156200021757600080fd5b600091505b838210156200023b57858201830151818301840152908201906200021c565b600093810190920192909252949350505050565b600080604083850312156200026357600080fd5b82516001600160401b03808211156200027b57600080fd5b6200028986838701620001a0565b93506020850151915080821115620002a057600080fd5b50620002af85828601620001a0565b9150509250929050565b600181811c90821680620002ce57607f821691505b602082108103620002ef57634e487b7160e01b600052602260045260246000fd5b50919050565b601f8211156200034357600081815260208120601f850160051c810160208610156200031e5750805b601f850160051c820191505b818110156200033f578281556001016200032a565b5050505b505050565b81516001600160401b038111156200036457620003646200018a565b6200037c81620003758454620002b9565b84620002f5565b602080601f831160018114620003b457600084156200039b5750858301515b600019600386901b1c1916600185901b1785556200033f565b600085815260208120601f198616915b82811015620003e557888601518255948401946001909101908401620003c4565b5085821015620004045787850151600019600388901b60f8161c191681555b5050505050600190811b01905550565b61317e80620004246000396000f3fe6080604052600436106101d75760003560e01c806363b45e2d11610102578063ac9650d811610095578063e8a3d48511610064578063e8a3d485146105cd578063e985e9c5146105e2578063f242432a1461061d578063f5298aca1461063d57600080fd5b8063ac9650d814610528578063b24f2d3914610555578063bd85b03914610580578063d37c353b146105ad57600080fd5b8063938e3d7b116100d1578063938e3d7b146104b357806395d89b41146104d35780639bcf7a15146104e8578063a22cb4651461050857600080fd5b806363b45e2d146104265780636b20c4541461043b578063830405321461045b5780638da5cb5b1461048b57600080fd5b80632a55205a1161017a5780634bbb1abf116101495780634bbb1abf146103775780634cc157df146103975780634e1273f4146103d9578063600dd5ea1461040657600080fd5b80632a55205a146102f05780632bc43fd91461032f5780632eb2c2d6146103425780633b1475a71461036257600080fd5b80630b65108b116101b65780630b65108b146102795780630e89341c1461029057806313af4035146102b05780632419f51b146102d057600080fd5b8062fdd58e146101dc57806301ffc9a71461022757806306fdde0314610257575b600080fd5b3480156101e857600080fd5b506102146101f736600461242b565b600260209081526000928352604080842090915290825290205481565b6040519081526020015b60405180910390f35b34801561023357600080fd5b5061024761024236600461246b565b61065d565b604051901515815260200161021e565b34801561026357600080fd5b5061026c6106ca565b60405161021e91906124d8565b34801561028557600080fd5b5061028e610758565b005b34801561029c57600080fd5b5061026c6102ab3660046124eb565b610783565b3480156102bc57600080fd5b5061028e6102cb366004612504565b6107c4565b3480156102dc57600080fd5b506102146102eb3660046124eb565b6107fd565b3480156102fc57600080fd5b5061031061030b36600461251f565b61086b565b604080516001600160a01b03909316835260208301919091520161021e565b61028e61033d366004612541565b6108a8565b34801561034e57600080fd5b5061028e61035d3660046126c7565b6109ab565b34801561036e57600080fd5b50600c54610214565b34801561038357600080fd5b5061028e610392366004612541565b610a3a565b3480156103a357600080fd5b506103b76103b23660046124eb565b610acb565b604080516001600160a01b03909316835261ffff90911660208301520161021e565b3480156103e557600080fd5b506103f96103f4366004612770565b610b36565b60405161021e9190612875565b34801561041257600080fd5b5061028e61042136600461242b565b610c4a565b34801561043257600080fd5b50600954610214565b34801561044757600080fd5b5061028e610456366004612888565b610c7c565b34801561046757600080fd5b506102476104763660046124eb565b600b6020526000908152604090205460ff1681565b34801561049757600080fd5b506006546040516001600160a01b03909116815260200161021e565b3480156104bf57600080fd5b5061028e6104ce3660046128fb565b610e1e565b3480156104df57600080fd5b5061026c610e4b565b3480156104f457600080fd5b5061028e610503366004612943565b610e58565b34801561051457600080fd5b5061028e610523366004612978565b610e87565b34801561053457600080fd5b506105486105433660046129b4565b610f3f565b60405161021e9190612a28565b34801561056157600080fd5b506007546001600160a01b03811690600160a01b900461ffff166103b7565b34801561058c57600080fd5b5061021461059b3660046124eb565b600e6020526000908152604090205481565b3480156105b957600080fd5b506102146105c8366004612ad2565b611033565b3480156105d957600080fd5b5061026c611140565b3480156105ee57600080fd5b506102476105fd366004612b4b565b600360209081526000928352604080842090915290825290205460ff1681565b34801561062957600080fd5b5061028e610638366004612b7e565b61114d565b34801561064957600080fd5b5061028e610658366004612541565b6111d5565b60006301ffc9a760e01b6001600160e01b03198316148061068e5750636cdb3d1360e11b6001600160e01b03198316145b806106a957506303a24d0760e21b6001600160e01b03198316145b806106c457506001600160e01b0319821663152a902d60e11b145b92915050565b600080546106d790612be2565b80601f016020809104026020016040519081016040528092919081815260200182805461070390612be2565b80156107505780601f1061072557610100808354040283529160200191610750565b820191906000526020600020905b81548152906001019060200180831161073357829003601f168201915b505050505081565b61076533600060016112c6565b61078133600180604051806020016040528060008152506113eb565b565b60606000610790836114c4565b90508061079c84611660565b6040516020016107ad929190612c1c565b604051602081830303815290604052915050919050565b6107cc611768565b6107f15760405162461bcd60e51b81526004016107e890612c4b565b60405180910390fd5b6107fa81611795565b50565b600061080860095490565b82106108465760405162461bcd60e51b815260206004820152600d60248201526c092dcecc2d8d2c840d2dcc8caf609b1b60448201526064016107e8565b6009828154811061085957610859612c73565b90600052602060002001549050919050565b60008060008061087a86610acb565b90945084925061ffff1690506127106108938287612c9f565b61089d9190612ccc565b925050509250929050565b6002600d54036108fa5760405162461bcd60e51b815260206004820152601f60248201527f5265656e7472616e637947756172643a207265656e7472616e742063616c6c0060448201526064016107e8565b6002600d55600c54821061093d5760405162461bcd60e51b815260206004820152600a6024820152691a5b9d985b1a59081a5960b21b60448201526064016107e8565b610948338383610a3a565b6109538383836117e7565b81836001600160a01b0316336001600160a01b03167fff097c7d8b1957a4ff09ef1361b5fb54dcede3941ba836d0beb9d10bec725de68460405161099991815260200190565b60405180910390a450506001600d5550565b6001600160a01b0385163314806109e557506001600160a01b038516600090815260036020908152604080832033845290915290205460ff165b610a265760405162461bcd60e51b81526020600482015260126024820152710853d5d3915497d3d497d054141493d5915160721b60448201526064016107e8565b610a338585858585611802565b5050505050565b8115610a885760405162461bcd60e51b815260206004820152601b60248201527f436c61696d206469722065696e204d65646976616c20486f757365000000000060448201526064016107e8565b80600314610ac65760405162461bcd60e51b815260206004820152600b60248201526a199029ba3ab2b1b59032bd60a91b60448201526064016107e8565b505050565b6000818152600860209081526040808320815180830190925280546001600160a01b031680835260019091015492820192909252829115610b125780516020820151610b2c565b6007546001600160a01b03811690600160a01b900461ffff165b9250925050915091565b60608151835114610b595760405162461bcd60e51b81526004016107e890612ce0565b600083516001600160401b03811115610b7457610b74612574565b604051908082528060200260200182016040528015610b9d578160200160208202803683370190505b50905060005b8451811015610c425760026000868381518110610bc257610bc2612c73565b60200260200101516001600160a01b03166001600160a01b031681526020019081526020016000206000858381518110610bfe57610bfe612c73565b6020026020010151815260200190815260200160002054828281518110610c2757610c27612c73565b6020908102919091010152610c3b81612d09565b9050610ba3565b509392505050565b610c52611768565b610c6e5760405162461bcd60e51b81526004016107e890612c4b565b610c7882826119bd565b5050565b336001600160a01b038416811480610cb957506001600160a01b0380851660009081526003602090815260408083209385168352929052205460ff165b610cf95760405162461bcd60e51b81526020600482015260116024820152702ab730b8383937bb32b21031b0b63632b960791b60448201526064016107e8565b8151835114610d3c5760405162461bcd60e51b815260206004820152600f60248201526e098cadccee8d040dad2e6dac2e8c6d608b1b60448201526064016107e8565b60005b8351811015610e0c57828181518110610d5a57610d5a612c73565b602002602001015160026000876001600160a01b03166001600160a01b031681526020019081526020016000206000868481518110610d9b57610d9b612c73565b60200260200101518152602001908152602001600020541015610dfa5760405162461bcd60e51b8152602060048201526017602482015276139bdd08195b9bdd59da081d1bdad95b9cc81bdddb9959604a1b60448201526064016107e8565b610e05600182612d22565b9050610d3f565b50610e18848484611a63565b50505050565b610e26611768565b610e425760405162461bcd60e51b81526004016107e890612c4b565b6107fa81611c18565b600180546106d790612be2565b610e60611768565b610e7c5760405162461bcd60e51b81526004016107e890612c4b565b610ac6838383611cf4565b336001600160a01b0383168103610ed15760405162461bcd60e51b815260206004820152600e60248201526d20a8282927ab24a723afa9a2a62360911b60448201526064016107e8565b6001600160a01b03818116600081815260036020908152604080832094881680845294825291829020805460ff191687151590811790915591519182527f17307eab39ab6107e8899845ad3d59bd9653f200f220920489ca2b5937696c3191015b60405180910390a3505050565b6060816001600160401b03811115610f5957610f59612574565b604051908082528060200260200182016040528015610f8c57816020015b6060815260200190600190039081610f775790505b50905060005b8281101561102c57610ffc30858584818110610fb057610fb0612c73565b9050602002810190610fc29190612d35565b8080601f016020809104026020016040519081016040528093929190818152602001838380828437600092019190915250611db592505050565b82828151811061100e5761100e612c73565b6020026020010181905250808061102490612d09565b915050610f92565b5092915050565b600061103d611768565b6110595760405162461bcd60e51b81526004016107e890612c4b565b856000036110915760405162461bcd60e51b81526020600482015260056024820152640c08185b5d60da1b60448201526064016107e8565b6000600c5490506110d9818888888080601f016020809104026020016040519081016040528093929190818152602001838380828437600092019190915250611de192505050565b600c919091559150807f2a0365091ef1a40953c670dce28177e37520648a6fdc91506bffac0ab045570d600161110f8a84612d22565b6111199190612d7b565b8888888860405161112e959493929190612db7565b60405180910390a25095945050505050565b600580546106d790612be2565b6001600160a01b03851633148061118757506001600160a01b038516600090815260036020908152604080832033845290915290205460ff165b6111c85760405162461bcd60e51b81526020600482015260126024820152710853d5d3915497d3d497d054141493d5915160721b60448201526064016107e8565b610a338585858585611e45565b336001600160a01b03841681148061121257506001600160a01b0380851660009081526003602090815260408083209385168352929052205460ff165b6112525760405162461bcd60e51b81526020600482015260116024820152702ab730b8383937bb32b21031b0b63632b960791b60448201526064016107e8565b6001600160a01b03841660009081526002602090815260408083208684529091529020548211156112bf5760405162461bcd60e51b8152602060048201526017602482015276139bdd08195b9bdd59da081d1bdad95b9cc81bdddb9959604a1b60448201526064016107e8565b610e188484845b6001600160a01b03831661130d5760405162461bcd60e51b815260206004820152600e60248201526d232927a6afad22a927afa0a2222960911b60448201526064016107e8565b3361133c8185600061131e87611f74565b61132787611f74565b60405180602001604052806000815250611fbf565b6001600160a01b0384166000908152600260209081526040808320868452909152902054828110156113805760405162461bcd60e51b81526004016107e890612df0565b6001600160a01b03858116600081815260026020908152604080832089845282528083208887039055805189815291820188905291938616917fc3d58168c5ae7397731d063d5bbf3d657854427343f4c083240f7aacaa2d0f62910160405180910390a45050505050565b6001600160a01b0384166114115760405162461bcd60e51b81526004016107e890612e1a565b336114318160008761142288611f74565b61142b88611f74565b87611fbf565b6001600160a01b038516600090815260026020908152604080832087845290915281208054859290611464908490612d22565b909155505060408051858152602081018590526001600160a01b0380881692600092918516917fc3d58168c5ae7397731d063d5bbf3d657854427343f4c083240f7aacaa2d0f62910160405180910390a4610a33816000878787876120cb565b606060006114d160095490565b90506000600980548060200260200160405190810160405280929190818152602001828054801561152157602002820191906000526020600020905b81548152602001906001019080831161150d575b5050505050905060005b828110156116255781818151811061154557611545612c73565b602002602001015185101561161357600a600083838151811061156a5761156a612c73565b60200260200101518152602001908152602001600020805461158b90612be2565b80601f01602080910402602001604051908101604052809291908181526020018280546115b790612be2565b80156116045780601f106115d957610100808354040283529160200191611604565b820191906000526020600020905b8154815290600101906020018083116115e757829003601f168201915b50505050509350505050919050565b61161e600182612d22565b905061152b565b5060405162461bcd60e51b815260206004820152600f60248201526e125b9d985b1a59081d1bdad95b9259608a1b60448201526064016107e8565b6060816000036116875750506040805180820190915260018152600360fc1b602082015290565b8160005b81156116b1578061169b81612d09565b91506116aa9050600a83612ccc565b915061168b565b6000816001600160401b038111156116cb576116cb612574565b6040519080825280601f01601f1916602001820160405280156116f5576020820181803683370190505b5090505b84156117605761170a600183612d7b565b9150611717600a86612e40565b611722906030612d22565b60f81b81838151811061173757611737612c73565b60200101906001600160f81b031916908160001a905350611759600a86612ccc565b94506116f9565b949350505050565b600061177c6006546001600160a01b031690565b6001600160a01b0316336001600160a01b031614905090565b600680546001600160a01b038381166001600160a01b0319831681179093556040519116919082907f8292fce18fa69edf4db7b94ea2e58241df0ae57f97e0a6c9b29067028bf92d7690600090a35050565b610ac6838383604051806020016040528060008152506113eb565b81518351146118235760405162461bcd60e51b81526004016107e890612ce0565b6001600160a01b0384166118495760405162461bcd60e51b81526004016107e890612e1a565b33611858818787878787611fbf565b60005b845181101561194f57600085828151811061187857611878612c73565b60200260200101519050600085838151811061189657611896612c73565b6020908102919091018101516001600160a01b038b1660009081526002835260408082208683529093529190912054909150818110156118e85760405162461bcd60e51b81526004016107e890612df0565b6001600160a01b03808b16600090815260026020818152604080842088855282528084208787039055938d16835290815282822086835290529081208054849290611934908490612d22565b925050819055505050508061194890612d09565b905061185b565b50846001600160a01b0316866001600160a01b0316826001600160a01b03167f4a39dc06d4c0dbc64b70af90fd698a233a518aa5d07e595d983b8c0526c8f7fb878760405161199f929190612e54565b60405180910390a46119b581878787878761221e565b505050505050565b612710811115611a015760405162461bcd60e51b815260206004820152600f60248201526e45786365656473206d61782062707360881b60448201526064016107e8565b600780546001600160a01b0384166001600160b01b03199091168117600160a01b61ffff851602179091556040518281527f90d7ec04bcb8978719414f82e52e4cb651db41d0e6f8cea6118c2191e6183adb9060200160405180910390a25050565b6001600160a01b038316611aaa5760405162461bcd60e51b815260206004820152600e60248201526d232927a6afad22a927afa0a2222960911b60448201526064016107e8565b8051825114611acb5760405162461bcd60e51b81526004016107e890612ce0565b6000339050611aee81856000868660405180602001604052806000815250611fbf565b60005b8351811015611bb9576000848281518110611b0e57611b0e612c73565b602002602001015190506000848381518110611b2c57611b2c612c73565b6020908102919091018101516001600160a01b0389166000908152600283526040808220868352909352919091205490915081811015611b7e5760405162461bcd60e51b81526004016107e890612df0565b6001600160a01b0388166000908152600260209081526040808320958352949052929092209103905580611bb181612d09565b915050611af1565b5060006001600160a01b0316846001600160a01b0316826001600160a01b03167f4a39dc06d4c0dbc64b70af90fd698a233a518aa5d07e595d983b8c0526c8f7fb8686604051611c0a929190612e54565b60405180910390a450505050565b600060058054611c2790612be2565b80601f0160208091040260200160405190810160405280929190818152602001828054611c5390612be2565b8015611ca05780601f10611c7557610100808354040283529160200191611ca0565b820191906000526020600020905b815481529060010190602001808311611c8357829003601f168201915b505050505090508160059081611cb69190612ec8565b507fc9c7c3fe08b88b4df9d4d47ef47d2c43d55c025a0ba88ca442580ed9e7348a168183604051611ce8929190612f87565b60405180910390a15050565b612710811115611d385760405162461bcd60e51b815260206004820152600f60248201526e45786365656473206d61782062707360881b60448201526064016107e8565b6040805180820182526001600160a01b038481168083526020808401868152600089815260088352869020945185546001600160a01b031916941693909317845591516001909301929092559151838152909185917f7365cf4122f072a3365c20d54eff9b38d73c096c28e1892ec8f5b0e403a0f12d9101610f32565b6060611dda8383604051806060016040528060278152602001613122602791396122fb565b9392505050565b600080611dee8486612d22565b60098054600181019091557f6e1540171b6c0c960b71a7020d9f60077f6af931a8bbf590da0223dacf75c7af018190556000818152600a60205260409020909250829150611e3c8482612ec8565b50935093915050565b6001600160a01b038416611e6b5760405162461bcd60e51b81526004016107e890612e1a565b33611e7b81878761142288611f74565b6001600160a01b038616600090815260026020908152604080832087845290915290205483811015611ebf5760405162461bcd60e51b81526004016107e890612df0565b6001600160a01b0380881660009081526002602081815260408084208a855282528084208987039055938a16835290815282822088835290529081208054869290611f0b908490612d22565b909155505060408051868152602081018690526001600160a01b03808916928a821692918616917fc3d58168c5ae7397731d063d5bbf3d657854427343f4c083240f7aacaa2d0f62910160405180910390a4611f6b8288888888886120cb565b50505050505050565b60408051600180825281830190925260609160009190602080830190803683370190505090508281600081518110611fae57611fae612c73565b602090810291909101015292915050565b6001600160a01b0385166120465760005b835181101561204457828181518110611feb57611feb612c73565b6020026020010151600e600086848151811061200957612009612c73565b60200260200101518152602001908152602001600020600082825461202e9190612d22565b9091555061203d905081612d09565b9050611fd0565b505b6001600160a01b0384166119b55760005b8351811015611f6b5782818151811061207257612072612c73565b6020026020010151600e600086848151811061209057612090612c73565b6020026020010151815260200190815260200160002060008282546120b59190612d7b565b909155506120c4905081612d09565b9050612057565b6001600160a01b0384163b156119b55760405163f23a6e6160e01b81526001600160a01b0385169063f23a6e619061210f9089908990889088908890600401612fac565b6020604051808303816000875af192505050801561214a575060408051601f3d908101601f1916820190925261214791810190612ff1565b60015b6121cc5761215661300e565b806308c379a00361218f575061216a61302a565b806121755750612191565b8060405162461bcd60e51b81526004016107e891906124d8565b505b60405162461bcd60e51b815260206004820152601060248201526f10a2a92198989a9aa922a1a2a4ab22a960811b60448201526064016107e8565b6001600160e01b0319811663f23a6e6160e01b14611f6b5760405162461bcd60e51b815260206004820152600f60248201526e1513d2d15394d7d491529150d51151608a1b60448201526064016107e8565b6001600160a01b0384163b156119b55760405163bc197c8160e01b81526001600160a01b0385169063bc197c819061226290899089908890889088906004016130b3565b6020604051808303816000875af192505050801561229d575060408051601f3d908101601f1916820190925261229a91810190612ff1565b60015b6122a95761215661300e565b6001600160e01b0319811663bc197c8160e01b14611f6b5760405162461bcd60e51b815260206004820152600f60248201526e1513d2d15394d7d491529150d51151608a1b60448201526064016107e8565b60606001600160a01b0384163b151580156123155750333b155b6123615760405162461bcd60e51b815260206004820152601e60248201527f416464726573733a20696e76616c69642064656c65676174652063616c6c000060448201526064016107e8565b600080856001600160a01b03168560405161237c9190613105565b600060405180830381855af49150503d80600081146123b7576040519150601f19603f3d011682016040523d82523d6000602084013e6123bc565b606091505b50915091506123cc8282866123d6565b9695505050505050565b606083156123e5575081611dda565b8251156123f55782518084602001fd5b8160405162461bcd60e51b81526004016107e891906124d8565b80356001600160a01b038116811461242657600080fd5b919050565b6000806040838503121561243e57600080fd5b6124478361240f565b946020939093013593505050565b6001600160e01b0319811681146107fa57600080fd5b60006020828403121561247d57600080fd5b8135611dda81612455565b60005b838110156124a357818101518382015260200161248b565b50506000910152565b600081518084526124c4816020860160208601612488565b601f01601f19169290920160200192915050565b602081526000611dda60208301846124ac565b6000602082840312156124fd57600080fd5b5035919050565b60006020828403121561251657600080fd5b611dda8261240f565b6000806040838503121561253257600080fd5b50508035926020909101359150565b60008060006060848603121561255657600080fd5b61255f8461240f565b95602085013595506040909401359392505050565b634e487b7160e01b600052604160045260246000fd5b601f8201601f191681016001600160401b03811182821017156125af576125af612574565b6040525050565b60006001600160401b038211156125cf576125cf612574565b5060051b60200190565b600082601f8301126125ea57600080fd5b813560206125f7826125b6565b604051612604828261258a565b83815260059390931b850182019282810191508684111561262457600080fd5b8286015b8481101561263f5780358352918301918301612628565b509695505050505050565b60006001600160401b0383111561266357612663612574565b60405161267a601f8501601f19166020018261258a565b80915083815284848401111561268f57600080fd5b83836020830137600060208583010152509392505050565b600082601f8301126126b857600080fd5b611dda8383356020850161264a565b600080600080600060a086880312156126df57600080fd5b6126e88661240f565b94506126f66020870161240f565b935060408601356001600160401b038082111561271257600080fd5b61271e89838a016125d9565b9450606088013591508082111561273457600080fd5b61274089838a016125d9565b9350608088013591508082111561275657600080fd5b50612763888289016126a7565b9150509295509295909350565b6000806040838503121561278357600080fd5b82356001600160401b038082111561279a57600080fd5b818501915085601f8301126127ae57600080fd5b813560206127bb826125b6565b6040516127c8828261258a565b83815260059390931b85018201928281019150898411156127e857600080fd5b948201945b8386101561280d576127fe8661240f565b825294820194908201906127ed565b9650508601359250508082111561282357600080fd5b50612830858286016125d9565b9150509250929050565b600081518084526020808501945080840160005b8381101561286a5781518752958201959082019060010161284e565b509495945050505050565b602081526000611dda602083018461283a565b60008060006060848603121561289d57600080fd5b6128a68461240f565b925060208401356001600160401b03808211156128c257600080fd5b6128ce878388016125d9565b935060408601359150808211156128e457600080fd5b506128f1868287016125d9565b9150509250925092565b60006020828403121561290d57600080fd5b81356001600160401b0381111561292357600080fd5b8201601f8101841361293457600080fd5b6117608482356020840161264a565b60008060006060848603121561295857600080fd5b833592506129686020850161240f565b9150604084013590509250925092565b6000806040838503121561298b57600080fd5b6129948361240f565b9150602083013580151581146129a957600080fd5b809150509250929050565b600080602083850312156129c757600080fd5b82356001600160401b03808211156129de57600080fd5b818501915085601f8301126129f257600080fd5b813581811115612a0157600080fd5b8660208260051b8501011115612a1657600080fd5b60209290920196919550909350505050565b6000602080830181845280855180835260408601915060408160051b870101925083870160005b82811015612a7d57603f19888603018452612a6b8583516124ac565b94509285019290850190600101612a4f565b5092979650505050505050565b60008083601f840112612a9c57600080fd5b5081356001600160401b03811115612ab357600080fd5b602083019150836020828501011115612acb57600080fd5b9250929050565b600080600080600060608688031215612aea57600080fd5b8535945060208601356001600160401b0380821115612b0857600080fd5b612b1489838a01612a8a565b90965094506040880135915080821115612b2d57600080fd5b50612b3a88828901612a8a565b969995985093965092949392505050565b60008060408385031215612b5e57600080fd5b612b678361240f565b9150612b756020840161240f565b90509250929050565b600080600080600060a08688031215612b9657600080fd5b612b9f8661240f565b9450612bad6020870161240f565b9350604086013592506060860135915060808601356001600160401b03811115612bd657600080fd5b612763888289016126a7565b600181811c90821680612bf657607f821691505b602082108103612c1657634e487b7160e01b600052602260045260246000fd5b50919050565b60008351612c2e818460208801612488565b835190830190612c42818360208801612488565b01949350505050565b6020808252600e908201526d139bdd08185d5d1a1bdc9a5e995960921b604082015260600190565b634e487b7160e01b600052603260045260246000fd5b634e487b7160e01b600052601160045260246000fd5b80820281158282048414176106c4576106c4612c89565b634e487b7160e01b600052601260045260246000fd5b600082612cdb57612cdb612cb6565b500490565b6020808252600f908201526e0988a9c8ea890be9a92a69a82a8869608b1b604082015260600190565b600060018201612d1b57612d1b612c89565b5060010190565b808201808211156106c4576106c4612c89565b6000808335601e19843603018112612d4c57600080fd5b8301803591506001600160401b03821115612d6657600080fd5b602001915036819003821315612acb57600080fd5b818103818111156106c4576106c4612c89565b81835281816020850137506000828201602090810191909152601f909101601f19169091010190565b858152606060208201526000612dd1606083018688612d8e565b8281036040840152612de4818587612d8e565b98975050505050505050565b60208082526010908201526f125394d551919250d251539517d0905360821b604082015260600190565b6020808252600c908201526b2a27afad22a927afa0a2222960a11b604082015260600190565b600082612e4f57612e4f612cb6565b500690565b604081526000612e67604083018561283a565b8281036020840152612e79818561283a565b95945050505050565b601f821115610ac657600081815260208120601f850160051c81016020861015612ea95750805b601f850160051c820191505b818110156119b557828155600101612eb5565b81516001600160401b03811115612ee157612ee1612574565b612ef581612eef8454612be2565b84612e82565b602080601f831160018114612f2a5760008415612f125750858301515b600019600386901b1c1916600185901b1785556119b5565b600085815260208120601f198616915b82811015612f5957888601518255948401946001909101908401612f3a565b5085821015612f775787850151600019600388901b60f8161c191681555b5050505050600190811b01905550565b604081526000612f9a60408301856124ac565b8281036020840152612e7981856124ac565b6001600160a01b03868116825285166020820152604081018490526060810183905260a060808201819052600090612fe6908301846124ac565b979650505050505050565b60006020828403121561300357600080fd5b8151611dda81612455565b600060033d11156130275760046000803e5060005160e01c5b90565b600060443d10156130385790565b6040516003193d81016004833e81513d6001600160401b03816024840111818411171561306757505050505090565b828501915081518181111561307f5750505050505090565b843d87010160208285010111156130995750505050505090565b6130a86020828601018761258a565b509095945050505050565b6001600160a01b0386811682528516602082015260a0604082018190526000906130df9083018661283a565b82810360608401526130f1818661283a565b90508281036080840152612de481856124ac565b60008251613117818460208701612488565b919091019291505056fe416464726573733a206c6f772d6c6576656c2064656c65676174652063616c6c206661696c6564a2646970667358221220074eb1818febf514e08c516e5e23cf7f3fa01711e873719fca4d079422f2af6464736f6c63430008110033",
  "linkReferences": {},
  "deployedLinkReferences": {}
}